:100000000C9472000C9486000C9486000C9486006C
:100010000C9486000C9486000C9486000C94860048
:100020000C9486000C9486000C9486000C94860038
:100030000C9486000C9486000C9486000C94860028
:100040000C9486000C9486000C9486000C94860018
:100050000C9486000C9488000C9486000C94860006
:100060000C9486000C9486000C9486000C948600F8
:100070000C9486000C9486000C9486000C948600E8
:100080000C9486000C9486000C9486000C948600D8
:100090000C9486000C9486000C9486000C948600C8
:1000A0000C9486000C9486000C9486000C948600B8
:1000B0000C9486000C9486000C9486000C948600A8
:1000C0000C9486000C9486000C9486000C94860098
:1000D0000C9486000C9486000C9486000C94860088
:1000E0000C94860011241FBECFEFD1E2DEBFCDBF3E
:1000F00000E00CBF12E0A0E0B2E001C01D92A4300D
:10010000B107E1F70E9401010C949C010C940000DE
:100110001F920F920FB60F9211248F939F93AF935C
:10012000BF938091000290910102A0910202B091D0
:1001300003020196A11DB11D80930002909301025C
:10014000A0930202B0930302BF91AF919F918F9150
:100150000F900FBE0F901F90189587E68093C400F4
:1001600088E18093C10086E08093C2008FEF84B95C
:1001700015B8089582E0809381000895F8948091E5
:10018000840090918500789410928100F8941092E8
:1001900085001092840078949695879508958FEF46
:1001A0008AB95D9A85E18A95F1F700005D981AB8E1
:1001B00082E0809381004D9BFECF0E94BE0060E0F4
:1001C00070E0CB01089584B5826084BD85B58360FD
:1001D00085BD89EF87BD82E080936E0008956091B0
:1001E0000002709101028091020290910302089531
:1001F0009091C00095FFFCCF8093C60080E485B944
:10020000089578940E94E3000E94AD00809100025E
:1002100090910102A0910202B091030288519C4F7B
:10022000AF4FBF4F40910002509101026091020216
:100230007091030284179507A607B70798F70E94E5
:10024000CF000E9447016730710558F483E70E9490
:10025000F80084E70E94F8008FE60E94F80080E72B
:1002600010C082E70E94F80089E60E94F8008AE642
:100270000E94F80084E60E94F80085E60E94F800DB
:100280008EE60E94F8008AE00E94F800BFCF33D0CB
:1002900088F09F5790F0B92F9927B751A0F0D1F06F
:1002A000660F771F881F991F1AF0BA95C9F712C0F9
:1002B000B13081F03AD0B1E0089537C0672F782F80
:1002C0008827B85F39F0B93FCCF386957795679565
:1002D000B395D9F73EF490958095709561957F4FD1
:1002E0008F4F9F4F089557FD9058440F551F59F059
:1002F0005F3F71F04795880F97FB991F61F09F3F13
:1003000079F087950895121613061406551FF2CF3B
:100310004695F1DF08C0161617061806991FF1CF8B
:1003200086957105610508940895E894BB276627B2
:0C0330007727CB0197F90895F894FFCFD0
:00000001FF
